{
  "_format": "hh-sol-artifact-1",
  "contractName": "tokenizeRealestate",
  "sourceName": "contracts/tokenizerealestate.sol",
  "abi": [
    {
      "inputs": [
        {
          "internalType": "address",
          "name": "_token",
          "type": "address"
        }
      ],
      "stateMutability": "nonpayable",
      "type": "constructor"
    },
    {
      "anonymous": false,
      "inputs": [
        {
          "indexed": true,
          "internalType": "uint256",
          "name": "assetid",
          "type": "uint256"
        },
        {
          "indexed": true,
          "internalType": "address",
          "name": "subscriber",
          "type": "address"
        },
        {
          "indexed": false,
          "internalType": "uint256",
          "name": "fassetid",
          "type": "uint256"
        },
        {
          "indexed": false,
          "internalType": "uint256",
          "name": "rent",
          "type": "uint256"
        }
      ],
      "name": "Subscribe",
      "type": "event"
    },
    {
      "anonymous": false,
      "inputs": [
        {
          "indexed": true,
          "internalType": "uint256",
          "name": "assetid",
          "type": "uint256"
        },
        {
          "indexed": true,
          "internalType": "address",
          "name": "assetowner",
          "type": "address"
        },
        {
          "indexed": false,
          "internalType": "uint256",
          "name": "tokenid",
          "type": "uint256"
        },
        {
          "indexed": false,
          "internalType": "address",
          "name": "nft",
          "type": "address"
        }
      ],
      "name": "addasset",
      "type": "event"
    },
    {
      "anonymous": false,
      "inputs": [
        {
          "indexed": true,
          "internalType": "uint256",
          "name": "assetid",
          "type": "uint256"
        },
        {
          "indexed": true,
          "internalType": "address",
          "name": "assetowner",
          "type": "address"
        },
        {
          "indexed": false,
          "internalType": "uint256",
          "name": "tokenid",
          "type": "uint256"
        },
        {
          "indexed": false,
          "internalType": "address",
          "name": "nft",
          "type": "address"
        }
      ],
      "name": "addfasset",
      "type": "event"
    },
    {
      "anonymous": false,
      "inputs": [
        {
          "indexed": true,
          "internalType": "uint256",
          "name": "assetid",
          "type": "uint256"
        },
        {
          "indexed": true,
          "internalType": "address",
          "name": "buyer",
          "type": "address"
        },
        {
          "indexed": false,
          "internalType": "address",
          "name": "seller",
          "type": "address"
        },
        {
          "indexed": false,
          "internalType": "uint256",
          "name": "fassetid",
          "type": "uint256"
        },
        {
          "indexed": false,
          "internalType": "uint256",
          "name": "tokenid",
          "type": "uint256"
        },
        {
          "indexed": false,
          "internalType": "address",
          "name": "nft",
          "type": "address"
        }
      ],
      "name": "buyasset",
      "type": "event"
    },
    {
      "inputs": [
        {
          "internalType": "address",
          "name": "",
          "type": "address"
        }
      ],
      "name": "BSdetails",
      "outputs": [
        {
          "internalType": "address",
          "name": "buyer",
          "type": "address"
        },
        {
          "internalType": "bytes",
          "name": "location",
          "type": "bytes"
        },
        {
          "internalType": "bytes",
          "name": "contact",
          "type": "bytes"
        }
      ],
      "stateMutability": "view",
      "type": "function"
    },
    {
      "inputs": [
        {
          "internalType": "uint256",
          "name": "Assetid",
          "type": "uint256"
        },
        {
          "internalType": "uint256",
          "name": "fractionassetid",
          "type": "uint256"
        }
      ],
      "name": "BuyAsset",
      "outputs": [],
      "stateMutability": "nonpayable",
      "type": "function"
    },
    {
      "inputs": [
        {
          "internalType": "uint256",
          "name": "",
          "type": "uint256"
        },
        {
          "internalType": "uint256",
          "name": "",
          "type": "uint256"
        }
      ],
      "name": "FractionAssetdetails",
      "outputs": [
        {
          "internalType": "contract IERC721",
          "name": "nft",
          "type": "address"
        },
        {
          "internalType": "uint256",
          "name": "tokenId",
          "type": "uint256"
        },
        {
          "internalType": "uint256",
          "name": "assetPrice",
          "type": "uint256"
        },
        {
          "internalType": "bytes",
          "name": "size",
          "type": "bytes"
        },
        {
          "internalType": "uint256",
          "name": "rentPrice",
          "type": "uint256"
        }
      ],
      "stateMutability": "view",
      "type": "function"
    },
    {
      "inputs": [
        {
          "internalType": "uint256",
          "name": "",
          "type": "uint256"
        },
        {
          "internalType": "uint256",
          "name": "",
          "type": "uint256"
        }
      ],
      "name": "Fractionassetowner",
      "outputs": [
        {
          "internalType": "address",
          "name": "",
          "type": "address"
        }
      ],
      "stateMutability": "view",
      "type": "function"
    },
    {
      "inputs": [
        {
          "internalType": "uint256",
          "name": "",
          "type": "uint256"
        },
        {
          "internalType": "uint256",
          "name": "",
          "type": "uint256"
        }
      ],
      "name": "Tokenizeasset",
      "outputs": [
        {
          "internalType": "uint256",
          "name": "",
          "type": "uint256"
        }
      ],
      "stateMutability": "view",
      "type": "function"
    },
    {
      "inputs": [
        {
          "internalType": "contract IERC721",
          "name": "_nft",
          "type": "address"
        },
        {
          "internalType": "uint256",
          "name": "_tokenId",
          "type": "uint256"
        },
        {
          "internalType": "bytes",
          "name": "_assetlocation",
          "type": "bytes"
        },
        {
          "internalType": "bytes",
          "name": "_assetcontact",
          "type": "bytes"
        },
        {
          "internalType": "uint256",
          "name": "fassetprice",
          "type": "uint256"
        },
        {
          "internalType": "bytes",
          "name": "fassetsize",
          "type": "bytes"
        },
        {
          "internalType": "uint256",
          "name": "fassetrentcost",
          "type": "uint256"
        }
      ],
      "name": "addAsset",
      "outputs": [],
      "stateMutability": "nonpayable",
      "type": "function"
    },
    {
      "inputs": [
        {
          "internalType": "bytes",
          "name": "_location",
          "type": "bytes"
        },
        {
          "internalType": "bytes",
          "name": "_contact",
          "type": "bytes"
        }
      ],
      "name": "addbuyerseller",
      "outputs": [],
      "stateMutability": "nonpayable",
      "type": "function"
    },
    {
      "inputs": [
        {
          "internalType": "uint256",
          "name": "Assetid",
          "type": "uint256"
        },
        {
          "internalType": "uint256",
          "name": "fractionassetid",
          "type": "uint256"
        }
      ],
      "name": "addbuyfasset",
      "outputs": [],
      "stateMutability": "nonpayable",
      "type": "function"
    },
    {
      "inputs": [
        {
          "internalType": "uint256",
          "name": "price",
          "type": "uint256"
        },
        {
          "internalType": "uint256",
          "name": "id",
          "type": "uint256"
        },
        {
          "internalType": "uint256",
          "name": "rentprice",
          "type": "uint256"
        },
        {
          "internalType": "bytes",
          "name": "size",
          "type": "bytes"
        },
        {
          "internalType": "uint256",
          "name": "_tokenId",
          "type": "uint256"
        }
      ],
      "name": "addfractionasset",
      "outputs": [],
      "stateMutability": "nonpayable",
      "type": "function"
    },
    {
      "inputs": [
        {
          "internalType": "uint256",
          "name": "",
          "type": "uint256"
        }
      ],
      "name": "assetDetails",
      "outputs": [
        {
          "internalType": "contract IERC721",
          "name": "nft",
          "type": "address"
        },
        {
          "internalType": "bytes",
          "name": "location",
          "type": "bytes"
        },
        {
          "internalType": "uint256",
          "name": "id",
          "type": "uint256"
        },
        {
          "internalType": "bytes",
          "name": "contact",
          "type": "bytes"
        }
      ],
      "stateMutability": "view",
      "type": "function"
    },
    {
      "inputs": [],
      "name": "assetid",
      "outputs": [
        {
          "internalType": "uint256",
          "name": "",
          "type": "uint256"
        }
      ],
      "stateMutability": "view",
      "type": "function"
    },
    {
      "inputs": [],
      "name": "duration",
      "outputs": [
        {
          "internalType": "uint256",
          "name": "",
          "type": "uint256"
        }
      ],
      "stateMutability": "view",
      "type": "function"
    },
    {
      "inputs": [
        {
          "internalType": "address",
          "name": "",
          "type": "address"
        }
      ],
      "name": "exist",
      "outputs": [
        {
          "internalType": "bool",
          "name": "",
          "type": "bool"
        }
      ],
      "stateMutability": "view",
      "type": "function"
    },
    {
      "inputs": [
        {
          "internalType": "uint256",
          "name": "Assetid",
          "type": "uint256"
        },
        {
          "internalType": "uint256",
          "name": "fractionassetid",
          "type": "uint256"
        }
      ],
      "name": "getSellonof",
      "outputs": [
        {
          "internalType": "bool",
          "name": "",
          "type": "bool"
        }
      ],
      "stateMutability": "view",
      "type": "function"
    },
    {
      "inputs": [
        {
          "internalType": "uint256",
          "name": "Assetid",
          "type": "uint256"
        },
        {
          "internalType": "uint256",
          "name": "fractionassetid",
          "type": "uint256"
        }
      ],
      "name": "getfractionassetdetails",
      "outputs": [
        {
          "components": [
            {
              "internalType": "contract IERC721",
              "name": "nft",
              "type": "address"
            },
            {
              "internalType": "uint256",
              "name": "tokenId",
              "type": "uint256"
            },
            {
              "internalType": "uint256",
              "name": "assetPrice",
              "type": "uint256"
            },
            {
              "internalType": "bytes",
              "name": "size",
              "type": "bytes"
            },
            {
              "internalType": "uint256",
              "name": "rentPrice",
              "type": "uint256"
            }
          ],
          "internalType": "struct tokenizeRealestate.FractionAsset",
          "name": "",
          "type": "tuple"
        }
      ],
      "stateMutability": "view",
      "type": "function"
    },
    {
      "inputs": [
        {
          "internalType": "uint256",
          "name": "Assetid",
          "type": "uint256"
        },
        {
          "internalType": "uint256",
          "name": "fractionassetid",
          "type": "uint256"
        }
      ],
      "name": "getfractionassetowner",
      "outputs": [
        {
          "internalType": "address",
          "name": "",
          "type": "address"
        }
      ],
      "stateMutability": "view",
      "type": "function"
    },
    {
      "inputs": [
        {
          "internalType": "uint256",
          "name": "Assetid",
          "type": "uint256"
        },
        {
          "internalType": "uint256",
          "name": "fractionassetid",
          "type": "uint256"
        }
      ],
      "name": "getsubscription",
      "outputs": [
        {
          "components": [
            {
              "internalType": "address",
              "name": "subscriber",
              "type": "address"
            },
            {
              "internalType": "uint256",
              "name": "start",
              "type": "uint256"
            },
            {
              "internalType": "uint256",
              "name": "end",
              "type": "uint256"
            }
          ],
          "internalType": "struct tokenizeRealestate.subscription",
          "name": "",
          "type": "tuple"
        }
      ],
      "stateMutability": "view",
      "type": "function"
    },
    {
      "inputs": [
        {
          "internalType": "uint256",
          "name": "Assetid",
          "type": "uint256"
        }
      ],
      "name": "gettokenizeasset",
      "outputs": [
        {
          "internalType": "uint256[]",
          "name": "",
          "type": "uint256[]"
        }
      ],
      "stateMutability": "view",
      "type": "function"
    },
    {
      "inputs": [
        {
          "internalType": "uint256",
          "name": "Assetid",
          "type": "uint256"
        },
        {
          "internalType": "uint256",
          "name": "fractionassetid",
          "type": "uint256"
        }
      ],
      "name": "selloff",
      "outputs": [],
      "stateMutability": "nonpayable",
      "type": "function"
    },
    {
      "inputs": [
        {
          "internalType": "uint256",
          "name": "Assetid",
          "type": "uint256"
        },
        {
          "internalType": "uint256",
          "name": "_fractionassetid",
          "type": "uint256"
        }
      ],
      "name": "sellon",
      "outputs": [],
      "stateMutability": "nonpayable",
      "type": "function"
    },
    {
      "inputs": [
        {
          "internalType": "uint256",
          "name": "Assetid",
          "type": "uint256"
        },
        {
          "internalType": "uint256",
          "name": "fractionassetid",
          "type": "uint256"
        }
      ],
      "name": "subscribe",
      "outputs": [],
      "stateMutability": "nonpayable",
      "type": "function"
    },
    {
      "inputs": [
        {
          "internalType": "uint256",
          "name": "",
          "type": "uint256"
        },
        {
          "internalType": "uint256",
          "name": "",
          "type": "uint256"
        }
      ],
      "name": "subscriptions",
      "outputs": [
        {
          "internalType": "address",
          "name": "subscriber",
          "type": "address"
        },
        {
          "internalType": "uint256",
          "name": "start",
          "type": "uint256"
        },
        {
          "internalType": "uint256",
          "name": "end",
          "type": "uint256"
        }
      ],
      "stateMutability": "view",
      "type": "function"
    },
    {
      "inputs": [],
      "name": "token",
      "outputs": [
        {
          "internalType": "contract IERC20",
          "name": "",
          "type": "address"
        }
      ],
      "stateMutability": "view",
      "type": "function"
    }
  ],
  "bytecode": "0x60a06040523480156200001157600080fd5b5060405162003bc938038062003bc98339818101604052810190620000379190620000e4565b60016000819055508073ffffffffffffffffffffffffffffffffffffffff1660808173ffffffffffffffffffffffffffffffffffffffff16815250505062000116565b600080fd5b600073ffffffffffffffffffffffffffffffffffffffff82169050919050565b6000620000ac826200007f565b9050919050565b620000be816200009f565b8114620000ca57600080fd5b50565b600081519050620000de81620000b3565b92915050565b600060208284031215620000fd57620000fc6200007a565b5b60006200010d84828501620000cd565b91505092915050565b608051613a896200014060003960008181610b940152818161172201526129090152613a896000f3fe608060405234801561001057600080fd5b506004361061014d5760003560e01c806390ab6adb116100c3578063cd8d05151161007c578063cd8d0515146103ed578063dd4b67b314610409578063f365caef14610425578063f676a34414610455578063faef14c014610489578063fc0c546a146104b95761014d565b806390ab6adb1461031a5780639622eee11461033657806397e7296114610352578063a40232b614610382578063c39675281461039e578063c3e0350f146103d15761014d565b8063478429b111610115578063478429b11461021e578063491436191461024e5780634dfefc4b14610280578063626e5b10146102b057806380472cd5146102ce57806384370813146102fe5761014d565b80630fb5a6b41461015257806312aec3771461017057806314c4adaf146101a0578063365cfcbf146101bc57806343909713146101ee575b600080fd5b61015a6104d7565b6040516101679190612a63565b60405180910390f35b61018a60048036038101906101859190612abe565b6104de565b6040516101979190612b3f565b60405180910390f35b6101ba60048036038101906101b59190612abe565b610520565b005b6101d660048036038101906101d19190612abe565b61068b565b6040516101e593929190612b5a565b60405180910390f35b61020860048036038101906102039190612abe565b6106e2565b6040516102159190612a63565b60405180910390f35b61023860048036038101906102339190612abe565b610713565b6040516102459190612b3f565b60405180910390f35b61026860048036038101906102639190612bbd565b610762565b60405161027793929190612c83565b60405180910390f35b61029a60048036038101906102959190612bbd565b6108bc565b6040516102a79190612ce3565b60405180910390f35b6102b86108dc565b6040516102c59190612a63565b60405180910390f35b6102e860048036038101906102e39190612abe565b6108e2565b6040516102f59190612ce3565b60405180910390f35b61031860048036038101906103139190612abe565b61091e565b005b610334600480360381019061032f9190612abe565b610ce9565b005b610350600480360381019061034b9190612e71565b610e54565b005b61036c60048036038101906103679190612abe565b611377565b6040516103799190613095565b60405180910390f35b61039c60048036038101906103979190612abe565b6114bc565b005b6103b860048036038101906103b391906130b7565b611938565b6040516103c894939291906130f3565b60405180910390f35b6103eb60048036038101906103e69190612abe565b611a98565b005b61040760048036038101906104029190613146565b611df2565b005b610423600480360381019061041e91906131be565b61202a565b005b61043f600480360381019061043a9190612abe565b612708565b60405161044c91906132a6565b60405180910390f35b61046f600480360381019061046a9190612abe565b6127b1565b6040516104809594939291906132c1565b60405180910390f35b6104a3600480360381019061049e91906130b7565b61289c565b6040516104b091906133ca565b60405180910390f35b6104c1612907565b6040516104ce919061340d565b60405180910390f35b62278d0081565b60056020528160005260406000206020528060005260406000206000915091509054906101000a900473ffffffffffffffffffffffffffffffffffffffff1681565b3373ffffffffffffffffffffffffffffffffffffffff1660056000848152602001908152602001600020600083815260200190815260200160002060009054906101000a900473ffffffffffffffffffffffffffffffffffffffff1673ffffffffffffffffffffffffffffffffffffffff16146105d2576040517f08c379a00000000000000000000000000000000000000000000000000000000081526004016105c990613485565b60405180910390fd5b6000151560086000848152602001908152602001600020600083815260200190815260200160002060009054906101000a900460ff1615151461064a576040517f08c379a0000000000000000000000000000000000000000000000000000000008152600401610641906134f1565b60405180910390fd5b600160086000848152602001908152602001600020600083815260200190815260200160002060006101000a81548160ff0219169083151502179055505050565b6009602052816000526040600020602052806000526040600020600091509150508060000160009054906101000a900473ffffffffffffffffffffffffffffffffffffffff16908060010154908060020154905083565b600760205281600052604060002081815481106106fe57600080fd5b90600052602060002001600091509150505481565b600060056000848152602001908152602001600020600083815260200190815260200160002060009054906101000a900473ffffffffffffffffffffffffffffffffffffffff16905092915050565b60036020528060005260406000206000915090508060000160009054906101000a900473ffffffffffffffffffffffffffffffffffffffff16908060010180546107ab90613540565b80601f01602080910402602001604051908101604052809291908181526020018280546107d790613540565b80156108245780601f106107f957610100808354040283529160200191610824565b820191906000526020600020905b81548152906001019060200180831161080757829003601f168201915b50505050509080600201805461083990613540565b80601f016020809104026020016040519081016040528092919081815260200182805461086590613540565b80156108b25780601f10610887576101008083540402835291602001916108b2565b820191906000526020600020905b81548152906001019060200180831161089557829003601f168201915b5050505050905083565b60026020528060005260406000206000915054906101000a900460ff1681565b60015481565b600060086000848152602001908152602001600020600083815260200190815260200160002060009054906101000a900460ff16905092915050565b60006009600084815260200190815260200160002060008381526020019081526020016000206040518060600160405290816000820160009054906101000a900473ffffffffffffffffffffffffffffffffffffffff1673ffffffffffffffffffffffffffffffffffffffff1673ffffffffffffffffffffffffffffffffffffffff16815260200160018201548152602001600282015481525050905060008160400151905042811115610a07576040517f08c379a00000000000000000000000000000000000000000000000000000000081526004016109fe906135bd565b60405180910390fd5b60006006600086815260200190815260200160002060008581526020019081526020016000206040518060a00160405290816000820160009054906101000a900473ffffffffffffffffffffffffffffffffffffffff1673ffffffffffffffffffffffffffffffffffffffff1673ffffffffffffffffffffffffffffffffffffffff1681526020016001820154815260200160028201548152602001600382018054610ab290613540565b80601f0160208091040260200160405190810160405280929190818152602001828054610ade90613540565b8015610b2b5780601f10610b0057610100808354040283529160200191610b2b565b820191906000526020600020905b815481529060010190602001808311610b0e57829003601f168201915b505050505081526020016004820154815250509050600081608001519050600060056000888152602001908152602001600020600087815260200190815260200160002060009054906101000a900473ffffffffffffffffffffffffffffffffffffffff1690507f000000000000000000000000000000000000000000000000000000000000000073ffffffffffffffffffffffffffffffffffffffff166323b872dd3383856040518463ffffffff1660e01b8152600401610bef939291906135dd565b6020604051808303816000875af1158015610c0e573d6000803e3d6000fd5b505050506040513d601f19601f82011682018060405250810190610c329190613640565b5033856000019073ffffffffffffffffffffffffffffffffffffffff16908173ffffffffffffffffffffffffffffffffffffffff1681525050428560200181815250504262278d00610c84919061369c565b8560400181815250503373ffffffffffffffffffffffffffffffffffffffff166001547f4da0d42a121e84afe44db6e72bd62c46efbba73b5edfdb406eee5996d6d0e7608885604051610cd89291906136f2565b60405180910390a350505050505050565b3373ffffffffffffffffffffffffffffffffffffffff1660056000848152602001908152602001600020600083815260200190815260200160002060009054906101000a900473ffffffffffffffffffffffffffffffffffffffff1673ffffffffffffffffffffffffffffffffffffffff1614610d9b576040517f08c379a0000000000000000000000000000000000000000000000000000000008152600401610d9290613485565b60405180910390fd5b6001151560086000848152602001908152602001600020600083815260200190815260200160002060009054906101000a900460ff16151514610e13576040517f08c379a0000000000000000000000000000000000000000000000000000000008152600401610e0a90613767565b60405180910390fd5b600060086000848152602001908152602001600020600083815260200190815260200160002060006101000a81548160ff0219169083151502179055505050565b600260005403610e99576040517f08c379a0000000000000000000000000000000000000000000000000000000008152600401610e90906137d3565b60405180910390fd5b600260008190555060011515600260003373ffffffffffffffffffffffffffffffffffffffff1673ffffffffffffffffffffffffffffffffffffffff16815260200190815260200160002060009054906101000a900460ff16151514610f34576040517f08c379a0000000000000000000000000000000000000000000000000000000008152600401610f2b9061383f565b60405180910390fd5b6001806000828254610f46919061369c565b925050819055508673ffffffffffffffffffffffffffffffffffffffff166323b872dd3330896040518463ffffffff1660e01b8152600401610f8a939291906135dd565b600060405180830381600087803b158015610fa457600080fd5b505af1158015610fb8573d6000803e3d6000fd5b505050503360056000600154815260200190815260200160002060006001815260200190815260200160002060006101000a81548173ffffffffffffffffffffffffffffffffffffffff021916908373ffffffffffffffffffffffffffffffffffffffff16021790555060076000600154815260200190815260200160002060019080600181540180825580915050600190039060005260206000200160009091909190915055600060086000600154815260200190815260200160002060006001815260200190815260200160002060006101000a81548160ff021916908315150217905550600060405180608001604052808973ffffffffffffffffffffffffffffffffffffffff16815260200187815260200160015481526020018681525090508060046000600154815260200190815260200160002060008201518160000160006101000a81548173ffffffffffffffffffffffffffffffffffffffff021916908373ffffffffffffffffffffffffffffffffffffffff160217905550602082015181600101908051906020019061115592919061292b565b5060408201518160020155606082015181600301908051906020019061117c92919061292b565b5090505060006040518060a001604052808a73ffffffffffffffffffffffffffffffffffffffff1681526020018981526020018681526020018581526020018481525090508060066000600154815260200190815260200160002060006001815260200190815260200160002060008201518160000160006101000a81548173ffffffffffffffffffffffffffffffffffffffff021916908373ffffffffffffffffffffffffffffffffffffffff1602179055506020820151816001015560408201518160020155606082015181600301908051906020019061126092919061292b565b50608082015181600401559050506112766129b1565b42816020018181525050428160400181815250508060096000600154815260200190815260200160002060006001815260200190815260200160002060008201518160000160006101000a81548173ffffffffffffffffffffffffffffffffffffffff021916908373ffffffffffffffffffffffffffffffffffffffff16021790555060208201518160010155604082015181600201559050503373ffffffffffffffffffffffffffffffffffffffff166001547fef5c022f380ee048e331dcfcd0d6abce4259d7367a7e15d6fd54787869122c0b8b8d60405161135b92919061385f565b60405180910390a3505050600160008190555050505050505050565b61137f6129e8565b6006600084815260200190815260200160002060008381526020019081526020016000206040518060a00160405290816000820160009054906101000a900473ffffffffffffffffffffffffffffffffffffffff1673ffffffffffffffffffffffffffffffffffffffff1673ffffffffffffffffffffffffffffffffffffffff168152602001600182015481526020016002820154815260200160038201805461142890613540565b80601f016020809104026020016040519081016040528092919081815260200182805461145490613540565b80156114a15780601f10611476576101008083540402835291602001916114a1565b820191906000526020600020905b81548152906001019060200180831161148457829003601f168201915b50505050508152602001600482015481525050905092915050565b600260005403611501576040517f08c379a00000000000000000000000000000000000000000000000000000000081526004016114f8906137d3565b60405180910390fd5b600260008190555060011515600860006001548152602001908152602001600020600083815260200190815260200160002060009054906101000a900460ff16151514611583576040517f08c379a000000000000000000000000000000000000000000000000000000000815260040161157a906138d4565b60405180910390fd5b600060056000848152602001908152602001600020600083815260200190815260200160002060009054906101000a900473ffffffffffffffffffffffffffffffffffffffff16905060006006600085815260200190815260200160002060008481526020019081526020016000206040518060a00160405290816000820160009054906101000a900473ffffffffffffffffffffffffffffffffffffffff1673ffffffffffffffffffffffffffffffffffffffff1673ffffffffffffffffffffffffffffffffffffffff168152602001600182015481526020016002820154815260200160038201805461167790613540565b80601f01602080910402602001604051908101604052809291908181526020018280546116a390613540565b80156116f05780601f106116c5576101008083540402835291602001916116f0565b820191906000526020600020905b8154815290600101906020018083116116d357829003601f168201915b5050505050815260200160048201548152505090506000816040015190506000826000015190506000836020015190507f000000000000000000000000000000000000000000000000000000000000000073ffffffffffffffffffffffffffffffffffffffff166323b872dd3387866040518463ffffffff1660e01b815260040161177d939291906135dd565b6020604051808303816000875af115801561179c573d6000803e3d6000fd5b505050506040513d601f19601f820116820180604052508101906117c09190613640565b508173ffffffffffffffffffffffffffffffffffffffff166323b872dd3033846040518463ffffffff1660e01b81526004016117fe939291906135dd565b600060405180830381600087803b15801561181857600080fd5b505af115801561182c573d6000803e3d6000fd5b505050503360056000898152602001908152602001600020600088815260200190815260200160002060006101000a81548173ffffffffffffffffffffffffffffffffffffffff021916908373ffffffffffffffffffffffffffffffffffffffff160217905550600060086000898152602001908152602001600020600088815260200190815260200160002060006101000a81548160ff0219169083151502179055503373ffffffffffffffffffffffffffffffffffffffff166001547f53db5edbf93025341a2df609506aa8235c1396f6bb3bac0209b72d5dedc7b5f08789858760405161191f94939291906138f4565b60405180910390a3505050505060016000819055505050565b60046020528060005260406000206000915090508060000160009054906101000a900473ffffffffffffffffffffffffffffffffffffffff169080600101805461198190613540565b80601f01602080910402602001604051908101604052809291908181526020018280546119ad90613540565b80156119fa5780601f106119cf576101008083540402835291602001916119fa565b820191906000526020600020905b8154815290600101906020018083116119dd57829003601f168201915b505050505090806002015490806003018054611a1590613540565b80601f0160208091040260200160405190810160405280929190818152602001828054611a4190613540565b8015611a8e5780601f10611a6357610100808354040283529160200191611a8e565b820191906000526020600020905b815481529060010190602001808311611a7157829003601f168201915b5050505050905084565b3373ffffffffffffffffffffffffffffffffffffffff1660056000848152602001908152602001600020600083815260200190815260200160002060009054906101000a900473ffffffffffffffffffffffffffffffffffffffff1673ffffffffffffffffffffffffffffffffffffffff1614611b4a576040517f08c379a0000000000000000000000000000000000000000000000000000000008152600401611b4190613485565b60405180910390fd5b60006006600084815260200190815260200160002060008381526020019081526020016000206040518060a00160405290816000820160009054906101000a900473ffffffffffffffffffffffffffffffffffffffff1673ffffffffffffffffffffffffffffffffffffffff1673ffffffffffffffffffffffffffffffffffffffff1681526020016001820154815260200160028201548152602001600382018054611bf590613540565b80601f0160208091040260200160405190810160405280929190818152602001828054611c2190613540565b8015611c6e5780601f10611c4357610100808354040283529160200191611c6e565b820191906000526020600020905b815481529060010190602001808311611c5157829003601f168201915b5050505050815260200160048201548152505090506000816000015190506000826020015190503073ffffffffffffffffffffffffffffffffffffffff168273ffffffffffffffffffffffffffffffffffffffff16636352211e836040518263ffffffff1660e01b8152600401611ce59190612a63565b602060405180830381865afa158015611d02573d6000803e3d6000fd5b505050506040513d601f19601f82011682018060405250810190611d26919061394e565b73ffffffffffffffffffffffffffffffffffffffff1603611d7c576040517f08c379a0000000000000000000000000000000000000000000000000000000008152600401611d73906139c7565b60405180910390fd5b8173ffffffffffffffffffffffffffffffffffffffff166323b872dd3330846040518463ffffffff1660e01b8152600401611db9939291906135dd565b600060405180830381600087803b158015611dd357600080fd5b505af1158015611de7573d6000803e3d6000fd5b505050505050505050565b600260005403611e37576040517f08c379a0000000000000000000000000000000000000000000000000000000008152600401611e2e906137d3565b60405180910390fd5b6002600081905550600260003373ffffffffffffffffffffffffffffffffffffffff1673ffffffffffffffffffffffffffffffffffffffff16815260200190815260200160002060009054906101000a900460ff1615611ecc576040517f08c379a0000000000000000000000000000000000000000000000000000000008152600401611ec390613a33565b60405180910390fd5b600060405180606001604052803373ffffffffffffffffffffffffffffffffffffffff16815260200184815260200183815250905080600360003373ffffffffffffffffffffffffffffffffffffffff1673ffffffffffffffffffffffffffffffffffffffff16815260200190815260200160002060008201518160000160006101000a81548173ffffffffffffffffffffffffffffffffffffffff021916908373ffffffffffffffffffffffffffffffffffffffff1602179055506020820151816001019080519060200190611fa492919061292b565b506040820151816002019080519060200190611fc192919061292b565b509050506001600260003373ffffffffffffffffffffffffffffffffffffffff1673ffffffffffffffffffffffffffffffffffffffff16815260200190815260200160002060006101000a81548160ff0219169083151502179055505060016000819055505050565b3373ffffffffffffffffffffffffffffffffffffffff166005600086815260200190815260200160002060006001815260200190815260200160002060009054906101000a900473ffffffffffffffffffffffffffffffffffffffff1673ffffffffffffffffffffffffffffffffffffffff16146120dd576040517f08c379a00000000000000000000000000000000000000000000000000000000081526004016120d490613485565b60405180910390fd5b6000600460008681526020019081526020016000206040518060800160405290816000820160009054906101000a900473ffffffffffffffffffffffffffffffffffffffff1673ffffffffffffffffffffffffffffffffffffffff1673ffffffffffffffffffffffffffffffffffffffff16815260200160018201805461216390613540565b80601f016020809104026020016040519081016040528092919081815260200182805461218f90613540565b80156121dc5780601f106121b1576101008083540402835291602001916121dc565b820191906000526020600020905b8154815290600101906020018083116121bf57829003601f168201915b50505050508152602001600282015481526020016003820180546121ff90613540565b80601f016020809104026020016040519081016040528092919081815260200182805461222b90613540565b80156122785780601f1061224d57610100808354040283529160200191612278565b820191906000526020600020905b81548152906001019060200180831161225b57829003601f168201915b50505050508152505090506000816000015190503073ffffffffffffffffffffffffffffffffffffffff168173ffffffffffffffffffffffffffffffffffffffff16636352211e856040518263ffffffff1660e01b81526004016122dc9190612a63565b602060405180830381865afa1580156122f9573d6000803e3d6000fd5b505050506040513d601f19601f8201168201806040525081019061231d919061394e565b73ffffffffffffffffffffffffffffffffffffffff1603612373576040517f08c379a000000000000000000000000000000000000000000000000000000000815260040161236a906139c7565b60405180910390fd5b8073ffffffffffffffffffffffffffffffffffffffff166323b872dd3330866040518463ffffffff1660e01b81526004016123b0939291906135dd565b600060405180830381600087803b1580156123ca57600080fd5b505af11580156123de573d6000803e3d6000fd5b5050505060006007600088815260200190815260200160002080549050905060018161240a919061369c565b9050600760008881526020019081526020016000208190806001815401808255809150506001900390600052602060002001600090919091909150553360056000898152602001908152602001600020600083815260200190815260200160002060006101000a81548173ffffffffffffffffffffffffffffffffffffffff021916908373ffffffffffffffffffffffffffffffffffffffff16021790555060006040518060a001604052808473ffffffffffffffffffffffffffffffffffffffff1681526020018681526020018a815260200187815260200188815250905080600660008a8152602001908152602001600020600084815260200190815260200160002060008201518160000160006101000a81548173ffffffffffffffffffffffffffffffffffffffff021916908373ffffffffffffffffffffffffffffffffffffffff1602179055506020820151816001015560408201518160020155606082015181600301908051906020019061258692919061292b565b50608082015181600401559050506000600860008a8152602001908152602001600020600084815260200190815260200160002060006101000a81548160ff0219169083151502179055506125d96129b1565b6000816000019073ffffffffffffffffffffffffffffffffffffffff16908173ffffffffffffffffffffffffffffffffffffffff1681525050428160200181815250504281604001818152505080600960008b8152602001908152602001600020600085815260200190815260200160002060008201518160000160006101000a81548173ffffffffffffffffffffffffffffffffffffffff021916908373ffffffffffffffffffffffffffffffffffffffff16021790555060208201518160010155604082015181600201559050503373ffffffffffffffffffffffffffffffffffffffff166001547fc26301b8b37763283309e059164f95de19fc029559e352830f6cffbbad1038c788876040516126f492919061385f565b60405180910390a350505050505050505050565b6127106129b1565b6009600084815260200190815260200160002060008381526020019081526020016000206040518060600160405290816000820160009054906101000a900473ffffffffffffffffffffffffffffffffffffffff1673ffffffffffffffffffffffffffffffffffffffff1673ffffffffffffffffffffffffffffffffffffffff16815260200160018201548152602001600282015481525050905092915050565b6006602052816000526040600020602052806000526040600020600091509150508060000160009054906101000a900473ffffffffffffffffffffffffffffffffffffffff169080600101549080600201549080600301805461281390613540565b80601f016020809104026020016040519081016040528092919081815260200182805461283f90613540565b801561288c5780601f106128615761010080835404028352916020019161288c565b820191906000526020600020905b81548152906001019060200180831161286f57829003601f168201915b5050505050908060040154905085565b6060600760008381526020019081526020016000208054806020026020016040519081016040528092919081815260200182805480156128fb57602002820191906000526020600020905b8154815260200190600101908083116128e7575b50505050509050919050565b7f000000000000000000000000000000000000000000000000000000000000000081565b82805461293790613540565b90600052602060002090601f01602090048101928261295957600085556129a0565b82601f1061297257805160ff19168380011785556129a0565b828001600101855582156129a0579182015b8281111561299f578251825591602001919060010190612984565b5b5090506129ad9190612a2d565b5090565b6040518060600160405280600073ffffffffffffffffffffffffffffffffffffffff16815260200160008152602001600081525090565b6040518060a00160405280600073ffffffffffffffffffffffffffffffffffffffff168152602001600081526020016000815260200160608152602001600081525090565b5b80821115612a46576000816000905550600101612a2e565b5090565b6000819050919050565b612a5d81612a4a565b82525050565b6000602082019050612a786000830184612a54565b92915050565b6000604051905090565b600080fd5b600080fd5b612a9b81612a4a565b8114612aa657600080fd5b50565b600081359050612ab881612a92565b92915050565b60008060408385031215612ad557612ad4612a88565b5b6000612ae385828601612aa9565b9250506020612af485828601612aa9565b9150509250929050565b600073ffffffffffffffffffffffffffffffffffffffff82169050919050565b6000612b2982612afe565b9050919050565b612b3981612b1e565b82525050565b6000602082019050612b546000830184612b30565b92915050565b6000606082019050612b6f6000830186612b30565b612b7c6020830185612a54565b612b896040830184612a54565b949350505050565b612b9a81612b1e565b8114612ba557600080fd5b50565b600081359050612bb781612b91565b92915050565b600060208284031215612bd357612bd2612a88565b5b6000612be184828501612ba8565b91505092915050565b600081519050919050565b600082825260208201905092915050565b60005b83811015612c24578082015181840152602081019050612c09565b83811115612c33576000848401525b50505050565b6000601f19601f8301169050919050565b6000612c5582612bea565b612c5f8185612bf5565b9350612c6f818560208601612c06565b612c7881612c39565b840191505092915050565b6000606082019050612c986000830186612b30565b8181036020830152612caa8185612c4a565b90508181036040830152612cbe8184612c4a565b9050949350505050565b60008115159050919050565b612cdd81612cc8565b82525050565b6000602082019050612cf86000830184612cd4565b92915050565b6000612d0982612b1e565b9050919050565b612d1981612cfe565b8114612d2457600080fd5b50565b600081359050612d3681612d10565b92915050565b600080fd5b600080fd5b7f4e487b7100000000000000000000000000000000000000000000000000000000600052604160045260246000fd5b612d7e82612c39565b810181811067ffffffffffffffff82111715612d9d57612d9c612d46565b5b80604052505050565b6000612db0612a7e565b9050612dbc8282612d75565b919050565b600067ffffffffffffffff821115612ddc57612ddb612d46565b5b612de582612c39565b9050602081019050919050565b82818337600083830152505050565b6000612e14612e0f84612dc1565b612da6565b905082815260208101848484011115612e3057612e2f612d41565b5b612e3b848285612df2565b509392505050565b600082601f830112612e5857612e57612d3c565b5b8135612e68848260208601612e01565b91505092915050565b600080600080600080600060e0888a031215612e9057612e8f612a88565b5b6000612e9e8a828b01612d27565b9750506020612eaf8a828b01612aa9565b965050604088013567ffffffffffffffff811115612ed057612ecf612a8d565b5b612edc8a828b01612e43565b955050606088013567ffffffffffffffff811115612efd57612efc612a8d565b5b612f098a828b01612e43565b9450506080612f1a8a828b01612aa9565b93505060a088013567ffffffffffffffff811115612f3b57612f3a612a8d565b5b612f478a828b01612e43565b92505060c0612f588a828b01612aa9565b91505092959891949750929550565b6000819050919050565b6000612f8c612f87612f8284612afe565b612f67565b612afe565b9050919050565b6000612f9e82612f71565b9050919050565b6000612fb082612f93565b9050919050565b612fc081612fa5565b82525050565b612fcf81612a4a565b82525050565b600082825260208201905092915050565b6000612ff182612bea565b612ffb8185612fd5565b935061300b818560208601612c06565b61301481612c39565b840191505092915050565b600060a0830160008301516130376000860182612fb7565b50602083015161304a6020860182612fc6565b50604083015161305d6040860182612fc6565b50606083015184820360608601526130758282612fe6565b915050608083015161308a6080860182612fc6565b508091505092915050565b600060208201905081810360008301526130af818461301f565b905092915050565b6000602082840312156130cd576130cc612a88565b5b60006130db84828501612aa9565b91505092915050565b6130ed81612fa5565b82525050565b600060808201905061310860008301876130e4565b818103602083015261311a8186612c4a565b90506131296040830185612a54565b818103606083015261313b8184612c4a565b905095945050505050565b6000806040838503121561315d5761315c612a88565b5b600083013567ffffffffffffffff81111561317b5761317a612a8d565b5b61318785828601612e43565b925050602083013567ffffffffffffffff8111156131a8576131a7612a8d565b5b6131b485828601612e43565b9150509250929050565b600080600080600060a086880312156131da576131d9612a88565b5b60006131e888828901612aa9565b95505060206131f988828901612aa9565b945050604061320a88828901612aa9565b935050606086013567ffffffffffffffff81111561322b5761322a612a8d565b5b61323788828901612e43565b925050608061324888828901612aa9565b9150509295509295909350565b61325e81612b1e565b82525050565b60608201600082015161327a6000850182613255565b50602082015161328d6020850182612fc6565b5060408201516132a06040850182612fc6565b50505050565b60006060820190506132bb6000830184613264565b92915050565b600060a0820190506132d660008301886130e4565b6132e36020830187612a54565b6132f06040830186612a54565b81810360608301526133028185612c4a565b90506133116080830184612a54565b9695505050505050565b600081519050919050565b600082825260208201905092915050565b6000819050602082019050919050565b60006133538383612fc6565b60208301905092915050565b6000602082019050919050565b60006133778261331b565b6133818185613326565b935061338c83613337565b8060005b838110156133bd5781516133a48882613347565b97506133af8361335f565b925050600181019050613390565b5085935050505092915050565b600060208201905081810360008301526133e4818461336c565b905092915050565b60006133f782612f93565b9050919050565b613407816133ec565b82525050565b600060208201905061342260008301846133fe565b92915050565b600082825260208201905092915050565b7f73656e646572206973206e6f74206f776e657200000000000000000000000000600082015250565b600061346f601383613428565b915061347a82613439565b602082019050919050565b6000602082019050818103600083015261349e81613462565b9050919050565b7f73656c6c20616c7265616479206f6e0000000000000000000000000000000000600082015250565b60006134db600f83613428565b91506134e6826134a5565b602082019050919050565b6000602082019050818103600083015261350a816134ce565b9050919050565b7f4e487b7100000000000000000000000000000000000000000000000000000000600052602260045260246000fd5b6000600282049050600182168061355857607f821691505b60208210810361356b5761356a613511565b5b50919050565b7f72656e7420697320676f696e67206f6e00000000000000000000000000000000600082015250565b60006135a7601083613428565b91506135b282613571565b602082019050919050565b600060208201905081810360008301526135d68161359a565b9050919050565b60006060820190506135f26000830186612b30565b6135ff6020830185612b30565b61360c6040830184612a54565b949350505050565b61361d81612cc8565b811461362857600080fd5b50565b60008151905061363a81613614565b92915050565b60006020828403121561365657613655612a88565b5b60006136648482850161362b565b91505092915050565b7f4e487b7100000000000000000000000000000000000000000000000000000000600052601160045260246000fd5b60006136a782612a4a565b91506136b283612a4a565b9250827fffffffffffffffffffffffffffffffffffffffffffffffffffffffffffffffff038211156136e7576136e661366d565b5b828201905092915050565b60006040820190506137076000830185612a54565b6137146020830184612a54565b9392505050565b7f73656c6c20616c7265616479206f666600000000000000000000000000000000600082015250565b6000613751601083613428565b915061375c8261371b565b602082019050919050565b6000602082019050818103600083015261378081613744565b9050919050565b7f5265656e7472616e637947756172643a207265656e7472616e742063616c6c00600082015250565b60006137bd601f83613428565b91506137c882613787565b602082019050919050565b600060208201905081810360008301526137ec816137b0565b9050919050565b7f61646472206e6f74206578697374730000000000000000000000000000000000600082015250565b6000613829600f83613428565b9150613834826137f3565b602082019050919050565b600060208201905081810360008301526138588161381c565b9050919050565b60006040820190506138746000830185612a54565b6138816020830184612b30565b9392505050565b7f73656c6c20206f66660000000000000000000000000000000000000000000000600082015250565b60006138be600983613428565b91506138c982613888565b602082019050919050565b600060208201905081810360008301526138ed816138b1565b9050919050565b60006080820190506139096000830187612b30565b6139166020830186612a54565b6139236040830185612a54565b6139306060830184612b30565b95945050505050565b60008151905061394881612b91565b92915050565b60006020828403121561396457613963612a88565b5b600061397284828501613939565b91505092915050565b7f6e667420696420616c7265616479206578697374730000000000000000000000600082015250565b60006139b1601583613428565b91506139bc8261397b565b602082019050919050565b600060208201905081810360008301526139e0816139a4565b9050919050565b7f6164647220616c72656164792065786973740000000000000000000000000000600082015250565b6000613a1d601283613428565b9150613a28826139e7565b602082019050919050565b60006020820190508181036000830152613a4c81613a10565b905091905056fea264697066735822122031604b6a4401eb8c2544f3dafa316ff80721e80770b8a1646239c5b8f02127e964736f6c634300080d0033",
  "linkReferences": {},
  "deployedLinkReferences": {}
}